{
  "_format": "hh-sol-artifact-1",
  "contractName": "NFT",
  "sourceName": "contracts/NFT.sol",
  "abi": [
    {
      "inputs": [],
      "stateMutability": "nonpayable",
      "type": "constructor"
    },
    {
      "anonymous": false,
      "inputs": [
        {
          "indexed": true,
          "internalType": "address",
          "name": "owner",
          "type": "address"
        },
        {
          "indexed": true,
          "internalType": "address",
          "name": "approved",
          "type": "address"
        },
        {
          "indexed": true,
          "internalType": "uint256",
          "name": "tokenId",
          "type": "uint256"
        }
      ],
      "name": "Approval",
      "type": "event"
    },
    {
      "anonymous": false,
      "inputs": [
        {
          "indexed": true,
          "internalType": "address",
          "name": "owner",
          "type": "address"
        },
        {
          "indexed": true,
          "internalType": "address",
          "name": "operator",
          "type": "address"
        },
        {
          "indexed": false,
          "internalType": "bool",
          "name": "approved",
          "type": "bool"
        }
      ],
      "name": "ApprovalForAll",
      "type": "event"
    },
    {
      "anonymous": false,
      "inputs": [
        {
          "indexed": false,
          "internalType": "address",
          "name": "sender",
          "type": "address"
        },
        {
          "indexed": false,
          "internalType": "uint256",
          "name": "tokenId",
          "type": "uint256"
        }
      ],
      "name": "NFTMinted",
      "type": "event"
    },
    {
      "anonymous": false,
      "inputs": [
        {
          "indexed": true,
          "internalType": "address",
          "name": "from",
          "type": "address"
        },
        {
          "indexed": true,
          "internalType": "address",
          "name": "to",
          "type": "address"
        },
        {
          "indexed": true,
          "internalType": "uint256",
          "name": "tokenId",
          "type": "uint256"
        }
      ],
      "name": "Transfer",
      "type": "event"
    },
    {
      "inputs": [
        {
          "internalType": "address",
          "name": "to",
          "type": "address"
        },
        {
          "internalType": "uint256",
          "name": "tokenId",
          "type": "uint256"
        }
      ],
      "name": "approve",
      "outputs": [],
      "stateMutability": "nonpayable",
      "type": "function"
    },
    {
      "inputs": [
        {
          "internalType": "address",
          "name": "owner",
          "type": "address"
        }
      ],
      "name": "balanceOf",
      "outputs": [
        {
          "internalType": "uint256",
          "name": "",
          "type": "uint256"
        }
      ],
      "stateMutability": "view",
      "type": "function"
    },
    {
      "inputs": [],
      "name": "fetchNFTs",
      "outputs": [
        {
          "components": [
            {
              "internalType": "string",
              "name": "tokenUri",
              "type": "string"
            },
            {
              "internalType": "address",
              "name": "owner",
              "type": "address"
            }
          ],
          "internalType": "struct NFT.NFTItem[]",
          "name": "",
          "type": "tuple[]"
        }
      ],
      "stateMutability": "view",
      "type": "function"
    },
    {
      "inputs": [
        {
          "internalType": "uint256",
          "name": "tokenId",
          "type": "uint256"
        }
      ],
      "name": "getApproved",
      "outputs": [
        {
          "internalType": "address",
          "name": "",
          "type": "address"
        }
      ],
      "stateMutability": "view",
      "type": "function"
    },
    {
      "inputs": [
        {
          "internalType": "address",
          "name": "owner",
          "type": "address"
        },
        {
          "internalType": "address",
          "name": "operator",
          "type": "address"
        }
      ],
      "name": "isApprovedForAll",
      "outputs": [
        {
          "internalType": "bool",
          "name": "",
          "type": "bool"
        }
      ],
      "stateMutability": "view",
      "type": "function"
    },
    {
      "inputs": [
        {
          "internalType": "bytes32",
          "name": "hash",
          "type": "bytes32"
        },
        {
          "internalType": "bytes",
          "name": "signature",
          "type": "bytes"
        }
      ],
      "name": "isMessageSigned",
      "outputs": [
        {
          "internalType": "address",
          "name": "",
          "type": "address"
        }
      ],
      "stateMutability": "pure",
      "type": "function"
    },
    {
      "inputs": [
        {
          "internalType": "string",
          "name": "message",
          "type": "string"
        },
        {
          "internalType": "bytes32",
          "name": "hashMessage",
          "type": "bytes32"
        },
        {
          "internalType": "bytes",
          "name": "signature",
          "type": "bytes"
        }
      ],
      "name": "mintNFT",
      "outputs": [],
      "stateMutability": "nonpayable",
      "type": "function"
    },
    {
      "inputs": [],
      "name": "name",
      "outputs": [
        {
          "internalType": "string",
          "name": "",
          "type": "string"
        }
      ],
      "stateMutability": "view",
      "type": "function"
    },
    {
      "inputs": [
        {
          "internalType": "address",
          "name": "",
          "type": "address"
        }
      ],
      "name": "nftHolders",
      "outputs": [
        {
          "internalType": "uint256",
          "name": "",
          "type": "uint256"
        }
      ],
      "stateMutability": "view",
      "type": "function"
    },
    {
      "inputs": [
        {
          "internalType": "uint256",
          "name": "tokenId",
          "type": "uint256"
        }
      ],
      "name": "ownerOf",
      "outputs": [
        {
          "internalType": "address",
          "name": "",
          "type": "address"
        }
      ],
      "stateMutability": "view",
      "type": "function"
    },
    {
      "inputs": [
        {
          "internalType": "address",
          "name": "from",
          "type": "address"
        },
        {
          "internalType": "address",
          "name": "to",
          "type": "address"
        },
        {
          "internalType": "uint256",
          "name": "tokenId",
          "type": "uint256"
        }
      ],
      "name": "safeTransferFrom",
      "outputs": [],
      "stateMutability": "nonpayable",
      "type": "function"
    },
    {
      "inputs": [
        {
          "internalType": "address",
          "name": "from",
          "type": "address"
        },
        {
          "internalType": "address",
          "name": "to",
          "type": "address"
        },
        {
          "internalType": "uint256",
          "name": "tokenId",
          "type": "uint256"
        },
        {
          "internalType": "bytes",
          "name": "_data",
          "type": "bytes"
        }
      ],
      "name": "safeTransferFrom",
      "outputs": [],
      "stateMutability": "nonpayable",
      "type": "function"
    },
    {
      "inputs": [
        {
          "internalType": "address",
          "name": "operator",
          "type": "address"
        },
        {
          "internalType": "bool",
          "name": "approved",
          "type": "bool"
        }
      ],
      "name": "setApprovalForAll",
      "outputs": [],
      "stateMutability": "nonpayable",
      "type": "function"
    },
    {
      "inputs": [
        {
          "internalType": "bytes4",
          "name": "interfaceId",
          "type": "bytes4"
        }
      ],
      "name": "supportsInterface",
      "outputs": [
        {
          "internalType": "bool",
          "name": "",
          "type": "bool"
        }
      ],
      "stateMutability": "view",
      "type": "function"
    },
    {
      "inputs": [],
      "name": "symbol",
      "outputs": [
        {
          "internalType": "string",
          "name": "",
          "type": "string"
        }
      ],
      "stateMutability": "view",
      "type": "function"
    },
    {
      "inputs": [
        {
          "internalType": "uint256",
          "name": "tokenId",
          "type": "uint256"
        }
      ],
      "name": "tokenURI",
      "outputs": [
        {
          "internalType": "string",
          "name": "",
          "type": "string"
        }
      ],
      "stateMutability": "view",
      "type": "function"
    },
    {
      "inputs": [
        {
          "internalType": "address",
          "name": "from",
          "type": "address"
        },
        {
          "internalType": "address",
          "name": "to",
          "type": "address"
        },
        {
          "internalType": "uint256",
          "name": "tokenId",
          "type": "uint256"
        }
      ],
      "name": "transferFrom",
      "outputs": [],
      "stateMutability": "nonpayable",
      "type": "function"
    }
  ],
  "bytecode": "0x6080604052604051806108a001604052806108778152602001620041396108779139600890805190602001906200003892919062000168565b506040518060400160405280600d81526020017f3c2f746578743e3c2f7376673e00000000000000000000000000000000000000815250600990805190602001906200008692919062000168565b503480156200009457600080fd5b506040518060400160405280600781526020017f4d657373616765000000000000000000000000000000000000000000000000008152506040518060400160405280600381526020017f4d5347000000000000000000000000000000000000000000000000000000000081525081600090805190602001906200011992919062000168565b5080600190805190602001906200013292919062000168565b5050506200014c60076200015260201b620011f61760201c565b6200027d565b6001816000016000828254019250508190555050565b828054620001769062000218565b90600052602060002090601f0160209004810192826200019a5760008555620001e6565b82601f10620001b557805160ff1916838001178555620001e6565b82800160010185558215620001e6579182015b82811115620001e5578251825591602001919060010190620001c8565b5b509050620001f59190620001f9565b5090565b5b8082111562000214576000816000905550600101620001fa565b5090565b600060028204905060018216806200023157607f821691505b602082108114156200024857620002476200024e565b5b50919050565b7f4e487b7100000000000000000000000000000000000000000000000000000000600052602260045260246000fd5b613eac806200028d6000396000f3fe608060405234801561001057600080fd5b506004361061010b5760003560e01c806378f04baf116100a2578063a22cb46511610071578063a22cb465146102de578063b88d4fde146102fa578063bff0aaaf14610316578063c87b56dd14610332578063e985e9c5146103625761010b565b806378f04baf146102425780637df124a11461026057806395d89b41146102905780639613afea146102ae5761010b565b806323b872dd116100de57806323b872dd146101aa57806342842e0e146101c65780636352211e146101e257806370a08231146102125761010b565b806301ffc9a71461011057806306fdde0314610140578063081812fc1461015e578063095ea7b31461018e575b600080fd5b61012a600480360381019061012591906127a8565b610392565b6040516101379190613015565b60405180910390f35b610148610474565b60405161015591906130a5565b60405180910390f35b61017860048036038101906101739190612879565b610506565b6040516101859190612f63565b60405180910390f35b6101a860048036038101906101a39190612718565b61058b565b005b6101c460048036038101906101bf9190612612565b6106a3565b005b6101e060048036038101906101db9190612612565b610703565b005b6101fc60048036038101906101f79190612879565b610723565b6040516102099190612f63565b60405180910390f35b61022c60048036038101906102279190612584565b6107d5565b60405161023991906132e7565b60405180910390f35b61024a61088d565b6040516102579190612ff3565b60405180910390f35b61027a60048036038101906102759190612584565b610ab5565b60405161028791906132e7565b60405180910390f35b610298610acd565b6040516102a591906130a5565b60405180910390f35b6102c860048036038101906102c39190612754565b610b5f565b6040516102d59190612f63565b60405180910390f35b6102f860048036038101906102f391906126dc565b610ca1565b005b610314600480360381019061030f9190612661565b610cb7565b005b610330600480360381019061032b91906127fa565b610d19565b005b61034c60048036038101906103479190612879565b611010565b60405161035991906130a5565b60405180910390f35b61037c600480360381019061037791906125d6565b611162565b6040516103899190613015565b60405180910390f35b60007f80ac58cd000000000000000000000000000000000000000000000000000000007bffffffffffffffffffffffffffffffffffffffffffffffffffffffff1916827bffffffffffffffffffffffffffffffffffffffffffffffffffffffff1916148061045d57507f5b5e139f000000000000000000000000000000000000000000000000000000007bffffffffffffffffffffffffffffffffffffffffffffffffffffffff1916827bffffffffffffffffffffffffffffffffffffffffffffffffffffffff1916145b8061046d575061046c8261120c565b5b9050919050565b6060600080546104839061364f565b80601f01602080910402602001604051908101604052809291908181526020018280546104af9061364f565b80156104fc5780601f106104d1576101008083540402835291602001916104fc565b820191906000526020600020905b8154815290600101906020018083116104df57829003601f168201915b5050505050905090565b600061051182611276565b610550576040517f08c379a000000000000000000000000000000000000000000000000000000000815260040161054790613247565b60405180910390fd5b6004600083815260200190815260200160002060009054906101000a900473ffffffffffffffffffffffffffffffffffffffff169050919050565b600061059682610723565b90508073ffffffffffffffffffffffffffffffffffffffff168373ffffffffffffffffffffffffffffffffffffffff161415610607576040517f08c379a00000000000000000000000000000000000000000000000000000000081526004016105fe90613287565b60405180910390fd5b8073ffffffffffffffffffffffffffffffffffffffff166106266112e2565b73ffffffffffffffffffffffffffffffffffffffff16148061065557506106548161064f6112e2565b611162565b5b610694576040517f08c379a000000000000000000000000000000000000000000000000000000000815260040161068b90613187565b60405180910390fd5b61069e83836112ea565b505050565b6106b46106ae6112e2565b826113a3565b6106f3576040517f08c379a00000000000000000000000000000000000000000000000000000000081526004016106ea906132a7565b60405180910390fd5b6106fe838383611481565b505050565b61071e83838360405180602001604052806000815250610cb7565b505050565b6000806002600084815260200190815260200160002060009054906101000a900473ffffffffffffffffffffffffffffffffffffffff169050600073ffffffffffffffffffffffffffffffffffffffff168173ffffffffffffffffffffffffffffffffffffffff1614156107cc576040517f08c379a00000000000000000000000000000000000000000000000000000000081526004016107c3906131c7565b60405180910390fd5b80915050919050565b60008073ffffffffffffffffffffffffffffffffffffffff168273ffffffffffffffffffffffffffffffffffffffff161415610846576040517f08c379a000000000000000000000000000000000000000000000000000000000815260040161083d906131a7565b60405180910390fd5b600360008373ffffffffffffffffffffffffffffffffffffffff1673ffffffffffffffffffffffffffffffffffffffff168152602001908152602001600020549050919050565b6060600061089b60076116e8565b90506000808267ffffffffffffffff8111156108e0577f4e487b7100000000000000000000000000000000000000000000000000000000600052604160045260246000fd5b60405190808252806020026020018201604052801561091957816020015b61090661234e565b8152602001906001900390816108fe5790505b50905060005b83811015610aab5760006001826109369190613436565b90506000600b60008381526020019081526020016000206040518060400160405290816000820180546109689061364f565b80601f01602080910402602001604051908101604052809291908181526020018280546109949061364f565b80156109e15780601f106109b6576101008083540402835291602001916109e1565b820191906000526020600020905b8154815290600101906020018083116109c457829003601f168201915b505050505081526020016001820160009054906101000a900473ffffffffffffffffffffffffffffffffffffffff1673ffffffffffffffffffffffffffffffffffffffff1673ffffffffffffffffffffffffffffffffffffffff1681525050905080848681518110610a7c577f4e487b7100000000000000000000000000000000000000000000000000000000600052603260045260246000fd5b6020026020010181905250600185610a949190613436565b945050508080610aa3906136b2565b91505061091f565b5080935050505090565b600a6020528060005260406000206000915090505481565b606060018054610adc9061364f565b80601f0160208091040260200160405190810160405280929190818152602001828054610b089061364f565b8015610b555780601f10610b2a57610100808354040283529160200191610b55565b820191906000526020600020905b815481529060010190602001808311610b3857829003601f168201915b5050505050905090565b6000806000806041855114610b7a5760009350505050610c9b565b6020850151925060408501519150606085015160001a9050601b8160ff161015610bae57601b81610bab919061348c565b90505b601b8160ff1614158015610bc65750601c8160ff1614155b15610bd75760009350505050610c9b565b60006040518060400160405280601c81526020017f19457468657265756d205369676e6564204d6573736167653a0a333200000000815250905060008188604051602001610c26929190612e67565b604051602081830303815290604052805190602001209050600060018285888860405160008152602001604052604051610c639493929190613060565b6020604051602081039080840390855afa158015610c85573d6000803e3d6000fd5b5050506020604051035190508096505050505050505b92915050565b610cb3610cac6112e2565b83836116f6565b5050565b610cc8610cc26112e2565b836113a3565b610d07576040517f08c379a0000000000000000000000000000000000000000000000000000000008152600401610cfe906132a7565b60405180910390fd5b610d1384848484611863565b50505050565b60003073ffffffffffffffffffffffffffffffffffffffff16639613afea84846040518363ffffffff1660e01b8152600401610d56929190613030565b60206040518083038186803b158015610d6e57600080fd5b505afa158015610d82573d6000803e3d6000fd5b505050506040513d601f19601f82011682018060405250810190610da691906125ad565b90503373ffffffffffffffffffffffffffffffffffffffff168173ffffffffffffffffffffffffffffffffffffffff1614610e16576040517f08c379a0000000000000000000000000000000000000000000000000000000008152600401610e0d906132c7565b60405180910390fd5b60006008856009604051602001610e2f93929190612eb3565b60405160208183030381529060405290506000610e4c60076116e8565b90506000610e59876118bf565b90506000610e6682611a9a565b90506000610e9e89610e7787611c47565b84604051602001610e8a93929190612ee4565b604051602081830303815290604052611c47565b9050600081604051602001610eb39190612f41565b6040516020818303038152906040529050610ece3386611e05565b610ed88582611e23565b60405180604001604052808281526020013373ffffffffffffffffffffffffffffffffffffffff16815250600b60008781526020019081526020016000206000820151816000019080519060200190610f3292919061237e565b5060208201518160010160006101000a81548173ffffffffffffffffffffffffffffffffffffffff021916908373ffffffffffffffffffffffffffffffffffffffff16021790555090505084600a60003373ffffffffffffffffffffffffffffffffffffffff1673ffffffffffffffffffffffffffffffffffffffff16815260200190815260200160002081905550610fcb60076111f6565b7f4cc0a9c4a99ddc700de1af2c9f916a7cbfdb71f14801ccff94061ad1ef8a80403386604051610ffc929190612fca565b60405180910390a150505050505050505050565b606061101b82611276565b61105a576040517f08c379a000000000000000000000000000000000000000000000000000000000815260040161105190613227565b60405180910390fd5b600060066000848152602001908152602001600020805461107a9061364f565b80601f01602080910402602001604051908101604052809291908181526020018280546110a69061364f565b80156110f35780601f106110c8576101008083540402835291602001916110f3565b820191906000526020600020905b8154815290600101906020018083116110d657829003601f168201915b505050505090506000611104611e97565b905060008151141561111a57819250505061115d565b60008251111561114f578082604051602001611137929190612e8f565b6040516020818303038152906040529250505061115d565b61115884611eae565b925050505b919050565b6000600560008473ffffffffffffffffffffffffffffffffffffffff1673ffffffffffffffffffffffffffffffffffffffff16815260200190815260200160002060008373ffffffffffffffffffffffffffffffffffffffff1673ffffffffffffffffffffffffffffffffffffffff16815260200190815260200160002060009054906101000a900460ff16905092915050565b6001816000016000828254019250508190555050565b60007f01ffc9a7000000000000000000000000000000000000000000000000000000007bffffffffffffffffffffffffffffffffffffffffffffffffffffffff1916827bffffffffffffffffffffffffffffffffffffffffffffffffffffffff1916149050919050565b60008073ffffffffffffffffffffffffffffffffffffffff166002600084815260200190815260200160002060009054906101000a900473ffffffffffffffffffffffffffffffffffffffff1673ffffffffffffffffffffffffffffffffffffffff1614159050919050565b600033905090565b816004600083815260200190815260200160002060006101000a81548173ffffffffffffffffffffffffffffffffffffffff021916908373ffffffffffffffffffffffffffffffffffffffff160217905550808273ffffffffffffffffffffffffffffffffffffffff1661135d83610723565b73ffffffffffffffffffffffffffffffffffffffff167f8c5be1e5ebec7d5bd14f71427d1e84f3dd0314c0f7b2291e5b200ac8c7c3b92560405160405180910390a45050565b60006113ae82611276565b6113ed576040517f08c379a00000000000000000000000000000000000000000000000000000000081526004016113e490613167565b60405180910390fd5b60006113f883610723565b90508073ffffffffffffffffffffffffffffffffffffffff168473ffffffffffffffffffffffffffffffffffffffff16148061143a57506114398185611162565b5b8061147857508373ffffffffffffffffffffffffffffffffffffffff1661146084610506565b73ffffffffffffffffffffffffffffffffffffffff16145b91505092915050565b8273ffffffffffffffffffffffffffffffffffffffff166114a182610723565b73ffffffffffffffffffffffffffffffffffffffff16146114f7576040517f08c379a00000000000000000000000000000000000000000000000000000000081526004016114ee906130e7565b60405180910390fd5b600073ffffffffffffffffffffffffffffffffffffffff168273ffffffffffffffffffffffffffffffffffffffff161415611567576040517f08c379a000000000000000000000000000000000000000000000000000000000815260040161155e90613127565b60405180910390fd5b611572838383611f55565b61157d6000826112ea565b6001600360008573ffffffffffffffffffffffffffffffffffffffff1673ffffffffffffffffffffffffffffffffffffffff16815260200190815260200160002060008282546115cd919061354e565b925050819055506001600360008473ffffffffffffffffffffffffffffffffffffffff1673ffffffffffffffffffffffffffffffffffffffff16815260200190815260200160002060008282546116249190613436565b92505081905550816002600083815260200190815260200160002060006101000a81548173ffffffffffffffffffffffffffffffffffffffff021916908373ffffffffffffffffffffffffffffffffffffffff160217905550808273ffffffffffffffffffffffffffffffffffffffff168473ffffffffffffffffffffffffffffffffffffffff167fddf252ad1be2c89b69c2b068fc378daa952ba7f163c4a11628f55a4df523b3ef60405160405180910390a46116e3838383611f5a565b505050565b600081600001549050919050565b8173ffffffffffffffffffffffffffffffffffffffff168373ffffffffffffffffffffffffffffffffffffffff161415611765576040517f08c379a000000000000000000000000000000000000000000000000000000000815260040161175c90613147565b60405180910390fd5b80600560008573ffffffffffffffffffffffffffffffffffffffff1673ffffffffffffffffffffffffffffffffffffffff16815260200190815260200160002060008473ffffffffffffffffffffffffffffffffffffffff1673ffffffffffffffffffffffffffffffffffffffff16815260200190815260200160002060006101000a81548160ff0219169083151502179055508173ffffffffffffffffffffffffffffffffffffffff168373ffffffffffffffffffffffffffffffffffffffff167f17307eab39ab6107e8899845ad3d59bd9653f200f220920489ca2b5937696c31836040516118569190613015565b60405180910390a3505050565b61186e848484611481565b61187a84848484611f5f565b6118b9576040517f08c379a00000000000000000000000000000000000000000000000000000000081526004016118b0906130c7565b60405180910390fd5b50505050565b60008060008084519050600092505b80821015611a8f576000858381518110611911577f4e487b7100000000000000000000000000000000000000000000000000000000600052603260045260246000fd5b602001015160f81c60f81b9050608060f81b817effffffffffffffffffffffffffffffffffffffffffffffffffffffffffffff19161015611960576001836119599190613436565b9250611a7b565b60e060f81b817effffffffffffffffffffffffffffffffffffffffffffffffffffffffffffff191610156119a25760028361199b9190613436565b9250611a7a565b60f060f81b817effffffffffffffffffffffffffffffffffffffffffffffffffffffffffffff191610156119e4576003836119dd9190613436565b9250611a79565b60f8801b817effffffffffffffffffffffffffffffffffffffffffffffffffffffffffffff19161015611a2557600483611a1e9190613436565b9250611a78565b60fc60f81b817effffffffffffffffffffffffffffffffffffffffffffffffffffffffffffff19161015611a6757600583611a609190613436565b9250611a77565b600683611a749190613436565b92505b5b5b5b5b508280611a87906136b2565b9350506118ce565b829350505050919050565b60606000821415611ae2576040518060400160405280600181526020017f30000000000000000000000000000000000000000000000000000000000000008152509050611c42565b600082905060005b60008214611b14578080611afd906136b2565b915050600a82611b0d91906134c3565b9150611aea565b60008167ffffffffffffffff811115611b56577f4e487b7100000000000000000000000000000000000000000000000000000000600052604160045260246000fd5b6040519080825280601f01601f191660200182016040528015611b885781602001600182028036833780820191505090505b5090505b60008514611c3b57600182611ba1919061354e565b9150600a85611bb09190613705565b6030611bbc9190613436565b60f81b818381518110611bf8577f4e487b7100000000000000000000000000000000000000000000000000000000600052603260045260246000fd5b60200101907effffffffffffffffffffffffffffffffffffffffffffffffffffffffffffff1916908160001a905350600a85611c3491906134c3565b9450611b8c565b8093505050505b919050565b60606000825190506000811415611c705760405180602001604052806000815250915050611e00565b60006003600283611c819190613436565b611c8b91906134c3565b6004611c9791906134f4565b90506000602082611ca89190613436565b67ffffffffffffffff811115611ce7577f4e487b7100000000000000000000000000000000000000000000000000000000600052604160045260246000fd5b6040519080825280601f01601f191660200182016040528015611d195781602001600182028036833780820191505090505b5090506000604051806060016040528060408152602001613e37604091399050600181016020830160005b86811015611dbd5760038101905062ffffff818a015116603f8160121c168401518060081b905060ff603f83600c1c1686015116810190508060081b905060ff603f8360061c1686015116810190508060081b905060ff603f831686015116810190508060e01b90508084526004840193505050611d44565b506003860660018114611dd75760028114611de757611df2565b613d3d60f01b6002830352611df2565b603d60f81b60018303525b508484525050819450505050505b919050565b611e1f8282604051806020016040528060008152506120f6565b5050565b611e2c82611276565b611e6b576040517f08c379a0000000000000000000000000000000000000000000000000000000008152600401611e62906131e7565b60405180910390fd5b80600660008481526020019081526020016000209080519060200190611e9292919061237e565b505050565b606060405180602001604052806000815250905090565b6060611eb982611276565b611ef8576040517f08c379a0000000000000000000000000000000000000000000000000000000008152600401611eef90613267565b60405180910390fd5b6000611f02611e97565b90506000815111611f225760405180602001604052806000815250611f4d565b80611f2c84611a9a565b604051602001611f3d929190612e8f565b6040516020818303038152906040525b915050919050565b505050565b505050565b6000611f808473ffffffffffffffffffffffffffffffffffffffff16612151565b156120e9578373ffffffffffffffffffffffffffffffffffffffff1663150b7a02611fa96112e2565b8786866040518563ffffffff1660e01b8152600401611fcb9493929190612f7e565b602060405180830381600087803b158015611fe557600080fd5b505af192505050801561201657506040513d601f19601f8201168201806040525081019061201391906127d1565b60015b612099573d8060008114612046576040519150601f19603f3d011682016040523d82523d6000602084013e61204b565b606091505b50600081511415612091576040517f08c379a0000000000000000000000000000000000000000000000000000000008152600401612088906130c7565b60405180910390fd5b805181602001fd5b63150b7a0260e01b7bffffffffffffffffffffffffffffffffffffffffffffffffffffffff1916817bffffffffffffffffffffffffffffffffffffffffffffffffffffffff1916149150506120ee565b600190505b949350505050565b6121008383612174565b61210d6000848484611f5f565b61214c576040517f08c379a0000000000000000000000000000000000000000000000000000000008152600401612143906130c7565b60405180910390fd5b505050565b6000808273ffffffffffffffffffffffffffffffffffffffff163b119050919050565b600073ffffffffffffffffffffffffffffffffffffffff168273ffffffffffffffffffffffffffffffffffffffff1614156121e4576040517f08c379a00000000000000000000000000000000000000000000000000000000081526004016121db90613207565b60405180910390fd5b6121ed81611276565b1561222d576040517f08c379a000000000000000000000000000000000000000000000000000000000815260040161222490613107565b60405180910390fd5b61223960008383611f55565b6001600360008473ffffffffffffffffffffffffffffffffffffffff1673ffffffffffffffffffffffffffffffffffffffff16815260200190815260200160002060008282546122899190613436565b92505081905550816002600083815260200190815260200160002060006101000a81548173ffffffffffffffffffffffffffffffffffffffff021916908373ffffffffffffffffffffffffffffffffffffffff160217905550808273ffffffffffffffffffffffffffffffffffffffff16600073ffffffffffffffffffffffffffffffffffffffff167fddf252ad1be2c89b69c2b068fc378daa952ba7f163c4a11628f55a4df523b3ef60405160405180910390a461234a60008383611f5a565b5050565b604051806040016040528060608152602001600073ffffffffffffffffffffffffffffffffffffffff1681525090565b82805461238a9061364f565b90600052602060002090601f0160209004810192826123ac57600085556123f3565b82601f106123c557805160ff19168380011785556123f3565b828001600101855582156123f3579182015b828111156123f25782518255916020019190600101906123d7565b5b5090506124009190612404565b5090565b5b8082111561241d576000816000905550600101612405565b5090565b600061243461242f84613327565b613302565b90508281526020810184848401111561244c57600080fd5b61245784828561360d565b509392505050565b600061247261246d84613358565b613302565b90508281526020810184848401111561248a57600080fd5b61249584828561360d565b509392505050565b6000813590506124ac81613dc3565b92915050565b6000815190506124c181613dc3565b92915050565b6000813590506124d681613dda565b92915050565b6000813590506124eb81613df1565b92915050565b60008135905061250081613e08565b92915050565b60008151905061251581613e08565b92915050565b600082601f83011261252c57600080fd5b813561253c848260208601612421565b91505092915050565b600082601f83011261255657600080fd5b813561256684826020860161245f565b91505092915050565b60008135905061257e81613e1f565b92915050565b60006020828403121561259657600080fd5b60006125a48482850161249d565b91505092915050565b6000602082840312156125bf57600080fd5b60006125cd848285016124b2565b91505092915050565b600080604083850312156125e957600080fd5b60006125f78582860161249d565b92505060206126088582860161249d565b9150509250929050565b60008060006060848603121561262757600080fd5b60006126358682870161249d565b93505060206126468682870161249d565b92505060406126578682870161256f565b9150509250925092565b6000806000806080858703121561267757600080fd5b60006126858782880161249d565b94505060206126968782880161249d565b93505060406126a78782880161256f565b925050606085013567ffffffffffffffff8111156126c457600080fd5b6126d08782880161251b565b91505092959194509250565b600080604083850312156126ef57600080fd5b60006126fd8582860161249d565b925050602061270e858286016124c7565b9150509250929050565b6000806040838503121561272b57600080fd5b60006127398582860161249d565b925050602061274a8582860161256f565b9150509250929050565b6000806040838503121561276757600080fd5b6000612775858286016124dc565b925050602083013567ffffffffffffffff81111561279257600080fd5b61279e8582860161251b565b9150509250929050565b6000602082840312156127ba57600080fd5b60006127c8848285016124f1565b91505092915050565b6000602082840312156127e357600080fd5b60006127f184828501612506565b91505092915050565b60008060006060848603121561280f57600080fd5b600084013567ffffffffffffffff81111561282957600080fd5b61283586828701612545565b9350506020612846868287016124dc565b925050604084013567ffffffffffffffff81111561286357600080fd5b61286f8682870161251b565b9150509250925092565b60006020828403121561288b57600080fd5b60006128998482850161256f565b91505092915050565b60006128ae8383612e0c565b905092915050565b6128bf81613582565b82525050565b6128ce81613582565b82525050565b60006128df826133ae565b6128e981856133dc565b9350836020820285016128fb85613389565b8060005b85811015612937578484038952815161291885826128a2565b9450612923836133cf565b925060208a019950506001810190506128ff565b50829750879550505050505092915050565b61295281613594565b82525050565b612961816135a0565b82525050565b612978612973826135a0565b6136fb565b82525050565b6000612989826133b9565b61299381856133ed565b93506129a381856020860161361c565b6129ac816137f2565b840191505092915050565b60006129c2826133b9565b6129cc81856133fe565b93506129dc81856020860161361c565b80840191505092915050565b60006129f3826133c4565b6129fd8185613409565b9350612a0d81856020860161361c565b612a16816137f2565b840191505092915050565b6000612a2c826133c4565b612a36818561341a565b9350612a4681856020860161361c565b612a4f816137f2565b840191505092915050565b6000612a65826133c4565b612a6f818561342b565b9350612a7f81856020860161361c565b80840191505092915050565b60008154612a988161364f565b612aa2818661342b565b94506001821660008114612abd5760018114612ace57612b01565b60ff19831686528186019350612b01565b612ad785613399565b60005b83811015612af957815481890152600182019150602081019050612ada565b838801955050505b50505092915050565b6000612b1760328361341a565b9150612b2282613803565b604082019050919050565b6000612b3a60258361341a565b9150612b4582613852565b604082019050919050565b6000612b5d601c8361341a565b9150612b68826138a1565b602082019050919050565b6000612b8060248361341a565b9150612b8b826138ca565b604082019050919050565b6000612ba360198361341a565b9150612bae82613919565b602082019050919050565b6000612bc6602c8361341a565b9150612bd182613942565b604082019050919050565b6000612be960388361341a565b9150612bf482613991565b604082019050919050565b6000612c0c602a8361341a565b9150612c17826139e0565b604082019050919050565b6000612c2f60298361341a565b9150612c3a82613a2f565b604082019050919050565b6000612c52602e8361341a565b9150612c5d82613a7e565b604082019050919050565b6000612c7560028361342b565b9150612c8082613acd565b600282019050919050565b6000612c9860208361341a565b9150612ca382613af6565b602082019050919050565b6000612cbb60318361341a565b9150612cc682613b1f565b604082019050919050565b6000612cde602c8361341a565b9150612ce982613b6e565b604082019050919050565b6000612d01602f8361341a565b9150612d0c82613bbd565b604082019050919050565b6000612d2460278361342b565b9150612d2f82613c0c565b602782019050919050565b6000612d47600a8361342b565b9150612d5282613c5b565b600a82019050919050565b6000612d6a60218361341a565b9150612d7582613c84565b604082019050919050565b6000612d8d601d8361342b565b9150612d9882613cd3565b601d82019050919050565b6000612db0600c8361342b565b9150612dbb82613cfc565b600c82019050919050565b6000612dd360318361341a565b9150612dde82613d25565b604082019050919050565b6000612df6602b8361341a565b9150612e0182613d74565b604082019050919050565b60006040830160008301518482036000860152612e2982826129e8565b9150506020830151612e3e60208601826128b6565b508091505092915050565b612e52816135f6565b82525050565b612e6181613600565b82525050565b6000612e7382856129b7565b9150612e7f8284612967565b6020820191508190509392505050565b6000612e9b8285612a5a565b9150612ea78284612a5a565b91508190509392505050565b6000612ebf8286612a8b565b9150612ecb8285612a5a565b9150612ed78284612a8b565b9150819050949350505050565b6000612eef82612d3a565b9150612efb8286612a5a565b9150612f0682612d17565b9150612f128285612a5a565b9150612f1d82612da3565b9150612f298284612a5a565b9150612f3482612c68565b9150819050949350505050565b6000612f4c82612d80565b9150612f588284612a5a565b915081905092915050565b6000602082019050612f7860008301846128c5565b92915050565b6000608082019050612f9360008301876128c5565b612fa060208301866128c5565b612fad6040830185612e49565b8181036060830152612fbf818461297e565b905095945050505050565b6000604082019050612fdf60008301856128c5565b612fec6020830184612e49565b9392505050565b6000602082019050818103600083015261300d81846128d4565b905092915050565b600060208201905061302a6000830184612949565b92915050565b60006040820190506130456000830185612958565b8181036020830152613057818461297e565b90509392505050565b60006080820190506130756000830187612958565b6130826020830186612e58565b61308f6040830185612958565b61309c6060830184612958565b95945050505050565b600060208201905081810360008301526130bf8184612a21565b905092915050565b600060208201905081810360008301526130e081612b0a565b9050919050565b6000602082019050818103600083015261310081612b2d565b9050919050565b6000602082019050818103600083015261312081612b50565b9050919050565b6000602082019050818103600083015261314081612b73565b9050919050565b6000602082019050818103600083015261316081612b96565b9050919050565b6000602082019050818103600083015261318081612bb9565b9050919050565b600060208201905081810360008301526131a081612bdc565b9050919050565b600060208201905081810360008301526131c081612bff565b9050919050565b600060208201905081810360008301526131e081612c22565b9050919050565b6000602082019050818103600083015261320081612c45565b9050919050565b6000602082019050818103600083015261322081612c8b565b9050919050565b6000602082019050818103600083015261324081612cae565b9050919050565b6000602082019050818103600083015261326081612cd1565b9050919050565b6000602082019050818103600083015261328081612cf4565b9050919050565b600060208201905081810360008301526132a081612d5d565b9050919050565b600060208201905081810360008301526132c081612dc6565b9050919050565b600060208201905081810360008301526132e081612de9565b9050919050565b60006020820190506132fc6000830184612e49565b92915050565b600061330c61331d565b90506133188282613681565b919050565b6000604051905090565b600067ffffffffffffffff821115613342576133416137c3565b5b61334b826137f2565b9050602081019050919050565b600067ffffffffffffffff821115613373576133726137c3565b5b61337c826137f2565b9050602081019050919050565b6000819050602082019050919050565b60008190508160005260206000209050919050565b600081519050919050565b600081519050919050565b600081519050919050565b6000602082019050919050565b600082825260208201905092915050565b600082825260208201905092915050565b600081905092915050565b600082825260208201905092915050565b600082825260208201905092915050565b600081905092915050565b6000613441826135f6565b915061344c836135f6565b9250827fffffffffffffffffffffffffffffffffffffffffffffffffffffffffffffffff0382111561348157613480613736565b5b828201905092915050565b600061349782613600565b91506134a283613600565b92508260ff038211156134b8576134b7613736565b5b828201905092915050565b60006134ce826135f6565b91506134d9836135f6565b9250826134e9576134e8613765565b5b828204905092915050565b60006134ff826135f6565b915061350a836135f6565b9250817fffffffffffffffffffffffffffffffffffffffffffffffffffffffffffffffff048311821515161561354357613542613736565b5b828202905092915050565b6000613559826135f6565b9150613564836135f6565b92508282101561357757613576613736565b5b828203905092915050565b600061358d826135d6565b9050919050565b60008115159050919050565b6000819050919050565b60007fffffffff0000000000000000000000000000000000000000000000000000000082169050919050565b600073ffffffffffffffffffffffffffffffffffffffff82169050919050565b6000819050919050565b600060ff82169050919050565b82818337600083830152505050565b60005b8381101561363a57808201518184015260208101905061361f565b83811115613649576000848401525b50505050565b6000600282049050600182168061366757607f821691505b6020821081141561367b5761367a613794565b5b50919050565b61368a826137f2565b810181811067ffffffffffffffff821117156136a9576136a86137c3565b5b80604052505050565b60006136bd826135f6565b91507fffffffffffffffffffffffffffffffffffffffffffffffffffffffffffffffff8214156136f0576136ef613736565b5b600182019050919050565b6000819050919050565b6000613710826135f6565b915061371b836135f6565b92508261372b5761372a613765565b5b828206905092915050565b7f4e487b7100000000000000000000000000000000000000000000000000000000600052601160045260246000fd5b7f4e487b7100000000000000000000000000000000000000000000000000000000600052601260045260246000fd5b7f4e487b7100000000000000000000000000000000000000000000000000000000600052602260045260246000fd5b7f4e487b7100000000000000000000000000000000000000000000000000000000600052604160045260246000fd5b6000601f19601f8301169050919050565b7f4552433732313a207472616e7366657220746f206e6f6e20455243373231526560008201527f63656976657220696d706c656d656e7465720000000000000000000000000000602082015250565b7f4552433732313a207472616e736665722066726f6d20696e636f72726563742060008201527f6f776e6572000000000000000000000000000000000000000000000000000000602082015250565b7f4552433732313a20746f6b656e20616c7265616479206d696e74656400000000600082015250565b7f4552433732313a207472616e7366657220746f20746865207a65726f2061646460008201527f7265737300000000000000000000000000000000000000000000000000000000602082015250565b7f4552433732313a20617070726f766520746f2063616c6c657200000000000000600082015250565b7f4552433732313a206f70657261746f7220717565727920666f72206e6f6e657860008201527f697374656e7420746f6b656e0000000000000000000000000000000000000000602082015250565b7f4552433732313a20617070726f76652063616c6c6572206973206e6f74206f7760008201527f6e6572206e6f7220617070726f76656420666f7220616c6c0000000000000000602082015250565b7f4552433732313a2062616c616e636520717565727920666f7220746865207a6560008201527f726f206164647265737300000000000000000000000000000000000000000000602082015250565b7f4552433732313a206f776e657220717565727920666f72206e6f6e657869737460008201527f656e7420746f6b656e0000000000000000000000000000000000000000000000602082015250565b7f45524337323155524953746f726167653a2055524920736574206f66206e6f6e60008201527f6578697374656e7420746f6b656e000000000000000000000000000000000000602082015250565b7f227d000000000000000000000000000000000000000000000000000000000000600082015250565b7f4552433732313a206d696e7420746f20746865207a65726f2061646472657373600082015250565b7f45524337323155524953746f726167653a2055524920717565727920666f722060008201527f6e6f6e6578697374656e7420746f6b656e000000000000000000000000000000602082015250565b7f4552433732313a20617070726f76656420717565727920666f72206e6f6e657860008201527f697374656e7420746f6b656e0000000000000000000000000000000000000000602082015250565b7f4552433732314d657461646174613a2055524920717565727920666f72206e6f60008201527f6e6578697374656e7420746f6b656e0000000000000000000000000000000000602082015250565b7f222c2022696d616765223a2022646174613a696d6167652f7376672b786d6c3b60008201527f6261736536342c00000000000000000000000000000000000000000000000000602082015250565b7f7b226e616d65223a202200000000000000000000000000000000000000000000600082015250565b7f4552433732313a20617070726f76616c20746f2063757272656e74206f776e6560008201527f7200000000000000000000000000000000000000000000000000000000000000602082015250565b7f646174613a6170706c69636174696f6e2f6a736f6e3b6261736536342c000000600082015250565b7f222c226c656e677468223a220000000000000000000000000000000000000000600082015250565b7f4552433732313a207472616e736665722063616c6c6572206973206e6f74206f60008201527f776e6572206e6f7220617070726f766564000000000000000000000000000000602082015250565b7f6d73672e73656e646572206973206e6f7420746865207369676e6572206f662060008201527f746865206d657373616765000000000000000000000000000000000000000000602082015250565b613dcc81613582565b8114613dd757600080fd5b50565b613de381613594565b8114613dee57600080fd5b50565b613dfa816135a0565b8114613e0557600080fd5b50565b613e11816135aa565b8114613e1c57600080fd5b50565b613e28816135f6565b8114613e3357600080fd5b5056fe4142434445464748494a4b4c4d4e4f505152535455565758595a6162636465666768696a6b6c6d6e6f707172737475767778797a303132333435363738392b2fa2646970667358221220730a2246db2c308bcafb1ae95bc6b430f61ba18357034f97155efc9c584a4ba664736f6c634300080400333c73766720786d6c6e733d22687474703a2f2f7777772e77332e6f72672f323030302f737667222077696474683d2232373022206865696768743d22323730222066696c6c3d226e6f6e65223e3c706174682066696c6c3d2275726c282342292220643d224d302030683237307632373048307a222f3e3c646566733e3c66696c7465722069643d22412220636f6c6f722d696e746572706f6c6174696f6e2d66696c746572733d2273524742222066696c746572556e6974733d227573657253706163654f6e55736522206865696768743d22323730222077696474683d22323730223e3c666544726f70536861646f772064783d2230222064793d22312220737464446576696174696f6e3d22322220666c6f6f642d6f7061636974793d222e323235222077696474683d223230302522206865696768743d2232303025222f3e3c2f66696c7465723e3c2f646566733e3c7061746820643d224d37322e3836332034322e393439632d2e3636382d2e3338372d312e3432362d2e35392d322e3139372d2e3539732d312e3532392e3230342d322e3139372e35396c2d31302e30383120362e3033322d362e383520332e3933342d31302e30383120362e303332632d2e3636382e3338372d312e3432362e35392d322e3139372e3539732d312e3532392d2e3230342d322e3139372d2e35396c2d382e3031332d342e37323161342e353220342e35322030203020312d312e3538392d312e363136632d2e3338342d2e3636352d2e3539342d312e3431382d2e3630382d322e313837762d392e3331632d2e3031332d2e3737352e3138352d312e3533382e3537322d322e32303861342e323520342e323520302030203120312e3632352d312e3539356c372e3838342d342e3539632e3636382d2e33383720312e3432362d2e353920322e3139372d2e353973312e3532392e32303420322e3139372e35396c372e38383420342e353961342e353220342e353220302030203120312e35383920312e363136632e3338342e3636352e35393420312e3431382e36303820322e31383776362e3033326c362e38352d342e303635762d362e303332632e3031332d2e3737352d2e3138352d312e3533382d2e3537322d322e32303861342e323520342e32352030203020302d312e3632352d312e3539354c34312e3435362032342e3539632d2e3636382d2e3338372d312e3432362d2e35392d322e3139372d2e3539732d312e3532392e3230342d322e3139372e35396c2d31342e38363420382e36353561342e323520342e32352030203020302d312e36323520312e353935632d2e3338372e36372d2e35383520312e3433342d2e35373220322e3230387631372e343431632d2e3031332e3737352e31383520312e3533382e35373220322e32303861342e323520342e323520302030203020312e36323520312e3539356c31342e38363420382e363535632e3636382e33383720312e3432362e353920322e3139372e353973312e3532392d2e32303420322e3139372d2e35396c31302e3038312d352e39303120362e38352d342e3036352031302e3038312d352e393031632e3636382d2e33383720312e3432362d2e353920322e3139372d2e353973312e3532392e32303420322e3139372e35396c372e38383420342e353961342e353220342e353220302030203120312e35383920312e363136632e3338342e3636352e35393420312e3431382e36303820322e31383776392e333131632e3031332e3737352d2e31383520312e3533382d2e35373220322e32303861342e323520342e32352030203020312d312e36323520312e3539356c2d372e38383420342e373231632d2e3636382e3338372d312e3432362e35392d322e3139372e3539732d312e3532392d2e3230342d322e3139372d2e35396c2d372e3838342d342e353961342e353220342e35322030203020312d312e3538392d312e363136632d2e3338352d2e3636352d2e3539342d312e3431382d2e3630382d322e313837762d362e3033326c2d362e383520342e30363576362e303332632d2e3031332e3737352e31383520312e3533382e35373220322e32303861342e323520342e323520302030203020312e36323520312e3539356c31342e38363420382e363535632e3636382e33383720312e3432362e353920322e3139372e353973312e3532392d2e32303420322e3139372d2e35396c31342e3836342d382e363535632e3635372d2e33393420312e3230342d2e393520312e3538392d312e363136732e3539342d312e3431382e3630392d322e3138375635352e353338632e3031332d2e3737352d2e3138352d312e3533382d2e3537322d322e32303861342e323520342e32352030203020302d312e3632352d312e3539356c2d31342e3939332d382e3738367a222066696c6c3d2223666666222f3e3c646566733e3c6c696e6561724772616469656e742069643d2242222078313d2230222079313d2230222078323d22323730222079323d2232373022206772616469656e74556e6974733d227573657253706163654f6e557365223e3c73746f702073746f702d636f6c6f723d2223636235656565222f3e3c73746f70206f66667365743d2231222073746f702d636f6c6f723d2223306364376534222073746f702d6f7061636974793d222e3939222f3e3c2f6c696e6561724772616469656e743e3c2f646566733e7468616c65732e74616c65733c7465787420783d2233322e352220793d223233312220666f6e742d73697a653d223237222066696c6c3d2223666666222066696c7465723d2275726c282341292220666f6e742d66616d696c793d22506c7573204a616b617274612053616e732c44656a6156752053616e732c4e6f746f20436f6c6f7220456d6f6a692c4170706c6520436f6c6f7220456d6f6a692c73616e732d73657269662220666f6e742d7765696768743d22626f6c64223e",
  "linkReferences": {},
  "deployedLinkReferences": {}
}